:100000000C94A1010C94CB010C94CB010C94CB016A
:100010000C94CB010C94CB010C94CB010C94CB0130
:100020000C94CB010C94CB010C94CB010C94CB0120
:100030000C94CB010C94CB010C942C0C0C94CB01A4
:100040000C94CB010C94CB010C94CB010C94CB0100
:100050000C94CB010C94CB010C94CB010C94CB01F0
:100060000C94CB010C94CB010C94CB010C94CB01E0
:100070000C94CB010C94CB010C94CB010C94CB01D0
:100080000C94CB010C94CB010C94CB010C94CB01C0
:100090000C94CB010C94CB010C94CB010C94CB01B0
:1000A0000C94CB010C94CB010C94CB010C94CB01A0
:1000B0000C94CB010C94CB010C94CB010C94CB0190
:1000C0000C94CB010C94CB010C94CB010C94CB0180
:1000D0000C94CB010C94CB010C94CB010C94CB0170
:1000E0000C94CB010C94CB010C94CB010C94CB0160
:1000F0000C94CB010C94CB010C94CB010C94CB0150
:100100000C94CB010C94CB010C94CB010C94CB013F
:100110000C94CB010C94CB010C94CB010C94CB012F
:100120000C94CB010C94CB010C94CB010C94CB011F
:100130000C94CB010C94CB010C94CB010C94CB010F
:100140000C94CB010C94CB010C94CB010C94CB01FF
:100150000C94CB010C94CB010C94CB010C94CB01EF
:100160000C94CB010C94CB010C94CB010C94CB01DF
:100170000C94CB010C94CB010C94CB010C94CB01CF
:100180000C94CB010C94CB010C94CB010C94CB01BF
:100190000C94CB010C94CB010C94CB010C94CB01AF
:1001A0000C94CB010C94CB010C94CB010C94CB019F
:1001B0000C948B260C94CB010C94CB010C94CB01AA
:1001C0000C94CB010C94CB010C94CB010C94CB017F
:1001D0000C94CB010C94CB010C94CB010C94CB016F
:1001E0000C94CB010C94CB010C94CB010C94CB015F
:1001F0000C94CB010C94CB010C94CB01EC1EEC1EA7
:10020000EC1E731F3F1F6D1FEC1EEC1E731F3F1F64
:100210000C94E3230C946D1F0C94271A0C94322435
:100220000C94731F0C94A7220C9487210C94CE1C61
:100230000C940A070C943F1F0C94EC1E0C941E297E
:100240006E616E00696E660000407A10F35A00A07D
:10025000724E18090010A5D4E80000E8764817008F
:1002600000E40B54020000CA9A3B000000E1F505CF
:10027000000080969800000040420F000000A08619
:1002800001000000102700000000E803000000004B
:100290006400000000000A000000000001000000EF
:1002A00000002C76D888DC674F0823DFC1DFAE5909
:1002B000E1B1B796E5E3E453C63AE651997696E89C
:1002C000E6C28426EB898C9B62ED407C6FFCEFBC20
:1002D0009C9F40F2BAA56FA5F490055A2AF75C934B
:1002E0006B6CF9676DC11BFCE0E40D47FEF520E681
:1002F000B500D0ED902E0300943577050080841E64
:10030000080000204E0A000000C80C333333330FBE
:10031000986E12831141EF8D2114893BE65516CF5B
:10032000FEE6DB18D1844B381BF77C1D901DA4BB67
:10033000E424203284725E228100C9F124ECA1E51C
:100340003D2711241FBECFEFCDBFDFE3DEBF00E0AE
:100350000CBFE4E5FDE28AEA90E48193E030F9071E
:10036000E0F3000010E2A0E0B0E2E4EEFFE600E01F
:100370000BBF02C007900D92A63AB107D9F72DE244
:10038000A6EAB0E201C01D92A435B207E1F70E94CF
:100390001E210C94F0370C940000CF93DF93CDB75F
:1003A000DEB780EA96E020E1FC01228380EA96E055
:1003B00020E2FC01228380EA96E020E4FC01228313
:1003C00080EA96E020E8FC0122830000DF91CF91D3
:1003D0000895CF93DF93CDB7DEB780EA96E0FC01B6
:1003E0008085882F90E080719927959587959595C0
:1003F00087959595879595958795892B89F4809113
:10040000A6209091A72080369A4E20F58091A620B4
:100410009091A72001968093A6209093A7201AC0C0
:100420008091A6209091A7200B9768F08091A6203C
:100430009091A720C39718F01092432D07C081E038
:100440008093432D03C082E08093432D1092A62019
:100450001092A72080EA96E0FC018085882F90E02A
:100460008072992795958795959587959595879508
:100470009595879595958795892B89F48091A820E6
:100480009091A92080369A4E20F58091A8209091D5
:10049000A92001968093A8209093A9201AC080914A
:1004A000A8209091A9200B9768F08091A8209091A6
:1004B000A920C39718F01092442D07C081E08093C3
:1004C000442D03C082E08093442D1092A820109206
:1004D000A92080EA96E0FC018085882F90E0807456
:1004E0009927082E892F000C881F990B000C881F54
:1004F000991F892B89F48091AA209091AB20803696
:100500009A4E20F58091AA209091AB20019680937D
:10051000AA209093AB201AC08091AA209091AB2082
:100520000B9768F08091AA209091AB20C39718F0A8
:100530001092452D07C081E08093452D03C082E0D5
:100540008093452D1092AA201092AB2080EA96E06D
:10055000FC01808588238CF08091AC209091AD20A7
:1005600080369A4E20F58091AC209091AD20019676
:100570008093AC209093AD201AC08091AC209091D4
:10058000AD200B9768F08091AC209091AD20C3977F
:1005900018F01092462D07C081E08093462D03C0CD
:1005A00082E08093462D1092AC201092AD20000086
:1005B000DF91CF910895CF93DF931F92CDB7DEB730
:1005C00089838981882F90E08130910579F082308C
:1005D00091051CF4892B39F012C08230910549F045
:1005E000039751F00CC08091432D0AC08091442D97
:1005F00007C08091452D04C08091462D01C082E046
:100600000F90DF91CF9108950F93CF93DF9300D098
:1006100000D0CDB7DEB78C839D836E838FE390E0EF
:10062000FC0180818B83F8948C819D8189839A83DE
:100630008BE390E0FC01108289819A812E81FC017C
:1006400008ED04BF20838FE390E02B81FC01208321
:1006500000002696CDBFDEBFDF91CF910F910895A8
:10066000CF93DF9300D0CDB7DEB789836A834B8306
:1006700080E590E02A81222311F020E201C020E0F1
:100680003981322B2B81232BFC01228300002396FE
:10069000CDBFDEBFDF91CF910895CF93DF931F923F
:1006A0001F92CDB7DEB789836A838A818F718A836F
:1006B00080E590E039812A81232BFC01258300000D
:1006C0000F900F90DF91CF910895CF93DF931F92FA
:1006D0001F92CDB7DEB78A8380E590E020E530E059
:1006E000F9012081322F2A8120952323FC012083C8
:1006F00080E590E0FC0190818A818923898389814A
:100700000F900F90DF91CF910895CF93DF9300D09A
:10071000CDB7DEB78A836B839A818B81892B8983DE
:10072000698181E490E00E94040300002396CDBF1C
:10073000DEBFDF91CF910895CF93DF931F921F9279
:10074000CDB7DEB78A8380E490E0FC018081982FEA
:10075000987F8A81892B8983698180E490E00E9457
:10076000040380E490E0FC0190818A8189238983DD
:1007700089810F900F90DF91CF910895CF93DF93F0
:1007800000D0CDB7DEB789839A836B8389819A8144
:10079000FC018081982F907F8B81892B282F898164
:1007A0009A81FC01208300002396CDBFDEBFDF913C
:1007B000CF910895CF93DF9300D0CDB7DEB7898373
:1007C0009A836B8389819A81FC018181982F987F1C
:1007D0008B81892B282F89819A81FC01218300003C
:1007E0002396CDBFDEBFDF91CF910895CF93DF93E6
:1007F00000D0CDB7DEB789839A836B8389819A81D4
:10080000FC018681982F9C7F8B81892B282F8981E1
:100810009A81FC01268300002396CDBFDEBFDF91C5
:10082000CF910895CF93DF9300D01F92CDB7DEB75D
:1008300089839A836B837C838BE20E942604000069
:100840002496CDBFDEBFDF91CF910895CF93DF9384
:100850001F921F92CDB7DEB78A838A818B3219F43B
:1008600081E089830EC08A818C3219F482E0898309
:1008700008C08A818F3219F483E0898302C084E042
:1008800089830E94490400000F900F90DF91CF915F
:100890000895CF93DF93CDB7DEB7000084E390E0F7
:1008A00028EDFC01208388E790E021E0FC01218312
:1008B0000000DF91CF910895CF93DF931F921F9295
:1008C000CDB7DEB780E190E00E94990789839A83D3
:1008D00089819A81892B61F089819A81FC0110823A
:1008E00011821282138289819A8104960E94EB07F9
:1008F00089819A810F900F90DF91CF910895CF92C7
:10090000DF92EF92FF920F931F93CF93DF93CDB7B8
:10091000DEB76D97CDBFDEBF8A8B9B8B4C8B5D8B1B
:100920006E8B7F8B288F098FCA8EDB8EEC8EFD8EAF
:100930008A899B8989879A871D821E821F821886D1
:100940001B860E94401589859A85FC0180819181D2
:10095000A281B3818C879D87AE87BF872C893D8913
:100960004E895F898C859D85AE85BF85098DBC01CB
:10097000CD010E942807888B8889882359F18C85AE
:100980009D85AE85BF8589839A83AB83BC831A8E90
:100990001B8E1C8E1D8E888D882309F465C0898569
:1009A0009A85FC0120813181428153818C899D8906
:1009B000AE89BF8980959095A095B09582239323A9
:1009C000A423B52329853A85F90180839183A283E5
:1009D000B3834AC08A8D9B8DAC8DBD8D892B8A2BAC
:1009E0008B2B59F48C859D85AE85BF8589839A8331
:1009F000AB83BC8381E08B8737C0888D882349F027
:100A00008D819E81AF81B885B1608D839E83AF83D8
:100A1000B887898D882349F08D819E81AF81B88503
:100A2000B4608D839E83AF83B8872C893D894E89BE
:100A30005F898D819E81AF81B885822B932BA42BFA
:100A4000B52B29853A85F90134962A8D3B8D4C8D3D
:100A50005D8D89019A01AC01BD01CF010E9413187F
:100A600019821A821B821C820E944D15898B8A8DE5
:100A70009B8DAC8DBD8D892B8A2B8B2B09F465C08A
:100A80008989882311F40E94820B0E94D11ADC010B
:100A9000CB0189839A83AB83BC8389819A81AB81A3
:100AA000BC8188279927AA27B270892B8A2B8B2B88
:100AB00009F042C0F091A200FF93F87FF093A200EA
:100AC00089859A85FC0180819181A281B381898386
:100AD0009A83AB83BC832C893D894E895F89898148
:100AE0009A81AB81BC81098DBC01CD010E94280790
:100AF0008823E9F0888D8823D1F089859A85FC01C7
:100B000020813181428153818C899D89AE89BF8941
:100B100080959095A095B09582239323A423B52327
:100B200029853A85F90180839183A283B38381E08B
:100B30008B87FF91F093A20089819A81AB81BC8160
:100B4000BB2789839A83AB83BC8389819A81AB81DC
:100B5000BC81BC01CD016D96CDBFDEBFDF91CF91D1
:100B60001F910F91FF90EF90DF90CF900895CF935A
:100B7000DF93CDB7DEB72C97CDBFDEBF8F839887CD
:100B800049875A876B877C878F81988589839A8369
:100B9000F091A200FF93F87FF093A20089819A81DF
:100BA000FC0180819181A281B3818B839C83AD8381
:100BB000BE8389819A81FC012081318142815381E8
:100BC00089859A85AB85BC8580959095A095B095D3
:100BD00082239323A423B52329813A81F9018083B9
:100BE0009183A283B383FF91F093A2008B819C81B8
:100BF000AD81BE81BC01CD012C96CDBFDEBFDF91A2
:100C0000CF910895CF93DF93CDB7DEB76D97CDBF6A
:100C1000DEBF888F998F4A8F5B8F6C8F7D8F1B8291
:100C20001C821D821E82888D998D888799871F82DC
:100C30008885998504968A879B878A859B850396F4
:100C40008C879D870E9440158A859B85FC01878142
:100C5000908589839A8388859985FC0120813181DB
:100C6000428153818A8D9B8DAC8DBD8D822B932BC0
:100C7000A42BB52B28853985F90180839183A28324
:100C8000B38395C089819A81FC01848195818E8787
:100C90009F8789819A81FC0180819181A281B381A2
:100CA000888B998BAA8BBB8B1F8288899989AA898B
:100CB000BB8988279927AA278C8B9D8BAE8BBF8BEE
:100CC00088899989AA89BB89BB27888B998BAA8B2C
:100CD000BB8B8C899D89AE89BF8988279927AA27D4
:100CE000B470892B8A2B8B2BB1F488859985FC01F4
:100CF000208131814281538188899989AA89BB8960
:100D000082239323A423B523892B8A2B8B2BE9F0F1
:100D100081E08F831AC088859985FC01208131810B
:100D20004281538188899989AA89BB8928233923DB
:100D30004A235B2388899989AA89BB89281739079F
:100D40004A075B0711F481E08F838F81882359F173
:100D50008C899D89AE89BF8988279927AA27B17078
:100D6000892B8A2B8B2B81F02B813C814D815E81DD
:100D700088899989AA89BB89822B932BA42BB52BAF
:100D80008B839C83AD83BE8388859985FC0180819C
:100D90009181A281B381B26029813A81AC01BD0108
:100DA000C9010E94EE188E859F8589839A832981C7
:100DB0003A818C859D852817390709F063CF88858E
:100DC0009985FC0120813181428153818B819C81F5
:100DD000AD81BE8180959095A095B0958223932397
:100DE000A423B52328853985F90180839183A283C3
:100DF000B3830E944D1588859985FC01808191817E
:100E0000A281B381BC01CD016D96CDBFDEBFDF9164
:100E1000CF910895CF93DF9300D000D0CDB7DEB748
:100E200089839A834B835C836D837E838B819C81D2
:100E3000AD81BE8129813A81AC01BD01C9010E9409
:100E4000020600002696CDBFDEBFDF91CF91089548
:100E50000F93CF93DF93CDB7DEB72A97CDBFDEBF19
:100E60006A837B838C839D832E833F834887598746
:100E70000A8719828A85882399F42A813B814C81CB
:100E80005D818E819F81A885B98582239323A423C8
:100E9000B523892B8A2B8B2BD1F081E0898317C056
:100EA0002A813B814C815D818E819F81A885B98596
:100EB000282339234A235B238E819F81A885B98506
:100EC000281739074A075B0711F481E08983898174
:100ED0002A96CDBFDEBFDF91CF910F9108950F937A
:100EE0001F93CF93DF93CDB7DEB72997CDBFDEBF7A
:100EF0008A839B834C835D836E837F8328873987B6
:100F0000288539858C819D81AE81BF816A817B81F5
:100F100089019C01AD018AE097E00E947D208983D0
:100F200089812996CDBFDEBFDF91CF911F910F91AF
:100F30000895CF93DF9300D01F92CDB7DEB78B8398
:100F40009C8319821A820E9440152091662C309150
:100F5000672C8B819C81820F931F883B9B4018F5E7
:100F60002091662C3091672C8B819C81280F391F32
:100F70008091662C9091672C82179307A0F4809142
:100F8000662C9091672C82559F4D89839A8320917E
:100F9000662C3091672C8B819C81820F931F8093EC
:100FA000662C9093672C0E944D1589819A81249616
:100FB000CDBFDEBFDF91CF910895CF93DF931F9216
:100FC0001F92CDB7DEB789839A8300000F900F90F0
:100FD000DF91CF910895CF93DF931F921F92CDB7EA
:100FE000DEB789839A8389819A819C012D5F3F4F67
:100FF00089819A81FC012183328329813A818FEF93
:101000009FEFDC01F90183839483A583B6838981F3
:101010009A819C012D5F3F4F89819A81FC01278332
:10102000308789819A819C012D5F3F4F89819A8108
:10103000FC012187328789819A81FC01108200009E
:101040000F900F90DF91CF910895CF93DF931F9270
:101050001F92CDB7DEB789839A8389819A81FC017B
:101060001286138600000F900F90DF91CF910895A4
:10107000CF93DF9300D000D0CDB7DEB78B839C83B6
:101080006D837E838B819C81FC0181819281898328
:101090009A838D819E8129813A81FC012483358345
:1010A00089819A81FC01268137818D819E81FC0195
:1010B0002683378389819A81FC01868197812D81DE
:1010C0003E81FC012483358389819A812D813E8173
:1010D000FC01268337838D819E812B813C81FC011D
:1010E000228733878B819C81FC01808121E0280F3E
:1010F0008B819C81FC01208300002696CDBFDEBF42
:10110000DF91CF910895CF93DF93CDB7DEB72A97C4
:10111000CDBFDEBF8F83988769877A8789859A8557
:10112000FC0180819181A281B3818B839C83AD83FB
:10113000BE838B819C81AD81BE818F3F9F4FAF4F1E
:10114000BF4F41F48F819885FC0181859285898309
:101150009A8320C08F819885039689839A8307C0DC
:1011600089819A81FC018481958189839A8389810F
:101170009A81FC0184819581FC0120813181428129
:1011800053818B819C81AD81BE8182179307A40717
:10119000B50730F789819A81FC01248135818985E1
:1011A0009A85FC012483358389859A85FC01848195
:1011B000958129853A85FC012683378389859A851F
:1011C00029813A81FC012683378389819A81298587
:1011D0003A85FC012483358389859A852F8138855A
:1011E000FC01228733878F819885FC01808121E073
:1011F000280F8F819885FC01208300002A96CDBF9F
:10120000DEBFDF91CF910895CF93DF9300D01F927F
:10121000CDB7DEB78B839C838B819C81FC0182855B
:10122000938589839A838B819C81FC01848195813C
:101230002B813C81F90126813781FC01268337838C
:101240008B819C81FC01868197812B813C81F901F6
:1012500024813581FC012483358389819A81FC01B5
:10126000218132818B819C812817390751F48B8130
:101270009C81FC012681378189819A81FC0121832F
:1012800032838B819C81FC011286138689819A812D
:10129000FC0180812FEF280F89819A81FC01208336
:1012A00089819A81FC0180812496CDBFDEBFDF91C8
:1012B000CF9108951F93CF93DF93CDB7DEB780EA28
:1012C00090E0FC01128180EA90E020EA30E0F90130
:1012D0002281287FFC012283812FDF91CF911F91F2
:1012E0000895CF93DF93CDB7DEB72A97CDBFDEBF8A
:1012F0008D839E836F83788749875A878D819E81EE
:1013000021E1FC0120838D819E8101978D839E8345
:101310008D819E8122E2FC0120838D819E81019737
:101320008D839E838D819E8123E3FC0120838D81AB
:101330009E8101978D839E838F819885CC01A0E04B
:10134000B0E089839A83AB83BC8329818D819E81A0
:10135000FC0120838D819E8101978D839E838981ED
:101360009A81AB81BC81892F9A2FAB2FBB278983B0
:101370009A83AB83BC8329818D819E81FC0120836C
:101380008D819E8101978D839E8389819A81AB8116
:10139000BC81892F9A2FAB2FBB2789839A83AB837C
:1013A000BC8329818D819E81FC0120838D819E815A
:1013B00001978D839E838D819E8121E3FC01208393
:1013C0008D819E8101978D839E838D819E8120E8F2
:1013D000FC0120838D819E8101978D839E838D8169
:1013E0009E8127E8FC0120838D819E8101978D835A
:1013F0009E838D819E81FC0110828D819E8101974B
:101400008D839E838D819E81FC0110828D819E81C2
:1014100001978D839E838D819E8122E0FC01208334
:101420008D819E8101978D839E838D819E8123E096
:10143000FC0120838D819E8101978D839E838D8108
:101440009E8124E0FC0120838D819E8101978D8304
:101450009E838D819E8125E0FC0120838D819E816C
:1014600001978D839E838D819E8126E0FC012083E0
:101470008D819E8101978D839E838D819E8127E042
:10148000FC0120838D819E8101978D839E838D81B8
:101490009E8128E0FC0120838D819E8101978D83B0
:1014A0009E838D819E8129E0FC0120838D819E8118
:1014B00001978D839E838D819E8120E1FC01208395
:1014C0008D819E8101978D839E838D819E8121E1F7
:1014D000FC0120838D819E8101978D839E838D8168
:1014E0009E8122E1FC0120838D819E8101978D8365
:1014F0009E838D819E8123E1FC0120838D819E81CD
:1015000001978D839E838D819E8124E1FC01208340
:101510008D819E8101978D839E838D819E8125E1A2
:10152000FC0120838D819E8101978D839E838D8117
:101530009E8126E1FC0120838D819E8101978D8310
:101540009E838D819E8127E1FC0120838D819E8178
:1015500001978D839E838D819E8128E1FC012083EC
:101560008D819E8101978D839E838D819E8129E14E
:10157000FC0120838D819E8101978D839E838D81C7
:101580009E8120E2FC0120838D819E8101978D83C5
:101590009E838D819E8121E2FC0120838D819E812D
:1015A00001978D839E838D819E8122E2FC012083A1
:1015B0008D819E8101978D839E838D819E8123E203
:1015C000FC0120838D819E8101978D839E83898577
:1015D0009A85CC01A0E0B0E089839A83AB83BC8379
:1015E00029818D819E81FC0120838D819E810197BF
:1015F0008D839E8389819A81AB81BC81892F9A2FAB
:10160000AB2FBB2789839A83AB83BC8329818D81D0
:101610009E81FC0120838D819E8101978D839E8315
:101620008D819E8126E2FC0120838D819E81019720
:101630008D839E838D819E8127E2FC0120838D8195
:101640009E8101978D839E838D819E8128E2FC017E
:1016500020838D819E8101978D839E838D819E81C4
:1016600029E2FC0120838D819E8101978D839E83D9
:101670008D819E8120E3FC0120838D819E810197D5
:101680008D839E838D819E812A96CDBFDEBFDF91A3
:10169000CF910895CF93DF93CDB7DEB70E94910C21
:1016A000A091682CB091692C0D900DBE0D900EBECE
:1016B000EF91DF91CF91BF91AF919F918F917F91EA
:1016C0006F915F914F913F912F911F910F91FF90DB
:1016D000EF90DF90CF90BF90AF909F908F907F90D2
:1016E0006F905F904F903F902F901F900F90FF91C1
:1016F000F093A200FF91FFBFFF91089581E0DF9179
:10170000CF910895FF93FFB7FF93F091A200FF934D
:10171000F87FF093A2000F921F9211242F923F9214
:101720004F925F926F927F928F929F92AF92BF92F1
:10173000CF92DF92EF92FF920F931F932F933F93DD
:101740004F935F936F937F938F939F93AF93BF93C9
:10175000CF93DF93EF93A091682CB091692C0DB6D5
:101760000D920EB60D920E941B17A091682CB0919D
:10177000692C0D900DBE0D900EBEEF91DF91CF91B3
:10178000BF91AF919F918F917F916F915F914F9199
:101790003F912F911F910F91FF90EF90DF90CF908D
:1017A000BF90AF909F908F907F906F905F904F9081
:1017B0003F902F901F900F90FF91F093A200FF9108
:1017C000FFBFFF91089500001F93CF93DF931F92F7
:1017D000CDB7DEB789838091472D982F8981892BDA
:1017E0008093472D80EA90E0FC018081813061F098
:1017F00080EA90E0FC018081823031F080EA90E064
:10180000FC018081843079F48091472D882359F040
:101810000E945A09182F1092472D0E941B1780EA28
:1018200090E0FC01128300000F90DF91CF911F9197
:1018300008951F93CF93DF93CDB7DEB70E945A0967
:10184000182F0E940B1680EA90E0FC011283000022
:10185000DF91CF911F910895FF93FFB7FF93F09110
:10186000A200FF93F87FF093A2000F921F92112421
:101870002F923F924F925F926F927F928F929F92A0
:10188000AF92BF92CF92DF92EF92FF920F931F938E
:101890002F933F934F935F936F937F938F939F9378
:1018A000AF93BF93CF93DF93EF93A091682CB09148
:1018B000692C0DB60D920EB60D920E94190C81E0A6
:1018C0000E94E40BA091682CB091692C0D900DBE84
:1018D0000D900EBEEF91DF91CF91BF91AF919F918F
:1018E0008F917F916F915F914F913F912F911F91B8
:1018F0000F91FF90EF90DF90CF90BF90AF909F90AF
:101900008F907F906F905F904F903F902F901F909F
:101910000F90FF91F093A200FF91FFBFFF911895E8
:101920000000CF93DF9300D01F92CDB7DEB780E0E9
:101930009DE7A0E0B0E089839A83AB83BC83898173
:101940009A81AB81BC81689415F8B695A795979557
:1019500087951694D1F789839A83AB83BC83898159
:101960009A81AB81BC810197A109B10989839A83CE
:10197000AB83BC8380E098E029813A81FC0126A3F7
:1019800037A365E080E098E00E94BE0361E080E05C
:1019900098E00E94F60300002496CDBFDEBFDF91E1
:1019A000CF910895CF93DF93CDB7DEB72597CDBF05
:1019B000DEBF8B839C836D838B819C8189839A831B
:1019C000F091A200FF93F87FF093A20089819A81A1
:1019D000FC018081918129813A81F901278D422F73
:1019E00050E029813A81F90120A1222F30E0429F65
:1019F000B001439F700D529F700D11249B01280F61
:101A0000391F89819A81FC012283338389819A81DC
:101A1000FC01168E89819A81FC01208131818981A6
:101A20009A81FC012483358389819A81FC0180811C
:101A3000918129813A81F901278D222F30E0A90176
:101A40004150510929813A81F90120A1222F30E02A
:101A5000429FB001439F700D529F700D11249B0156
:101A6000280F391F89819A81FC0126833783898158
:101A70009A812FEFFC0121A389819A812FEFFC012C
:101A800022A38D81882381F489819A81FC0180853C
:101A90008823A1F089819A8108960E94861888235C
:101AA00069F00E94820B0AC089819A8108960E947F
:101AB000EB0789819A8143960E94EB07FF91F0938F
:101AC000A20081E02596CDBFDEBFDF91CF910895C2
:101AD0000F931F93CF93DF93CDB7DEB72997CDBF79
:101AE000DEBF8F83688749878885882319F4198228
:101AF0001A820FC08F81482F50E08885282F30E050
:101B0000429FC001439F900D529F900D11248983E5
:101B10009A8389819A8185960E9499078B839C83F9
:101B20008B819C81892B81F08B819C8185968D8313
:101B30009E832B813C818D819E8189012985AC0109
:101B400068858F810E94AE0D8B819C812996CDBFC7
:101B5000DEBFDF91CF911F910F9108950F931F93D7
:101B6000CF93DF93CDB7DEB72797CDBFDEBF898395
:101B70006A834B835C832D830E831F838A81882332
:101B800041F48E819F812E813F81FC01208331832E
:101B900007C08E819F812B813C81FC012083318392
:101BA0008E819F812981FC01278F8E819F812A81CF
:101BB000FC0120A38E819F8161E00E94D20C8E8166
:101BC0009F812D81FC0124A300002796CDBFDEBF9D
:101BD000DF91CF911F910F9108950F93CF93DF93D2
:101BE000CDB7DEB76297CDBFDEBF8A879B876C8794
:101BF0007D872E873F87488B598B0A8B19828A8570
:101C00009B858A839B83F091A200FF93F87FF093DA
:101C1000A2008A819B81FC01268D8A819B81FC0127
:101C2000878D281718F08A89823019F52C853D8513
:101C30008A819B814A89B9010E94EB0F8C838A813A
:101C40009B81FC018389882351F08A819B81439683
:101C50000E948618882341F00E94820B05C08C8167
:101C6000882311F00E94820BFF91F093A20081E083
:101C70006FC08E859F85A889B989892B8A2B8B2B6C
:101C800029F4FF91F093A20080E062C0898188234B
:101C900031F4CE0105960E94511981E08983FF91AC
:101CA000F093A2000E944015F091A200FF93F87FEC
:101CB000F093A2008A819B81FC0181A18F3F21F4D6
:101CC0008A819B81FC0111A28A819B81FC0182A1F6
:101CD0008F3F21F48A819B81FC0112A2FF91F09336
:101CE000A2009E01225F3F4FCE010596B9010E94DE
:101CF0007419882331F58A819B810E94761188238B
:101D0000C9F08E859F85A889B9892A813B81285F82
:101D10003F4FAC01BD01C9010E94EB178A819B8135
:101D20000E94F0100E944D15882309F06CCF0E948C
:101D3000820B69CF8A819B810E94F0100E944D1511
:101D400062CF8A819B810E94F0100E944D1580E035
:101D50006296CDBFDEBFDF91CF910F910895CF93F3
:101D6000DF93CDB7DEB72C97CDBFDEBF8E839F83C9
:101D7000688779874A875B872C878E819F818A83D2
:101D80009B830E945A098C838A819B81FC01268D4A
:101D90008A819B81FC01878D281718F08C85823001
:101DA00089F58A819B81FC0182A18D8328853985F3
:101DB0008A819B814C85B9010E94EB0F8D818F3FF9
:101DC000B9F48A819B81FC0183898823C1F08A81CF
:101DD0009B8143960E948618882389F08A859B857B
:101DE000892B69F08A859B8521E0FC01208307C04F
:101DF0008D818F5F282F8A819B81FC0122A381E046
:101E0000898301C0198280EA90E02C81FC01228341
:101E100089812C96CDBFDEBFDF91CF910895CF93FE
:101E2000DF93CDB7DEB76197CDBFDEBF8A879B87D3
:101E30006C877D872E873F87488B598B19828A85CF
:101E40009B858A839B83F091A200FF93F87FF09398
:101E5000A2008A819B81FC01868D8C838C818823E2
:101E600011F12C853D858A819B81B9010E94A010CA
:101E70008C812FEF280F8A819B81FC01268F8A811C
:101E80009B81FC018085882349F08A819B8108968B
:101E90000E948618882311F00E94820BFF91F09314
:101EA000A20081E076C08E859F85A889B989892B9B
:101EB0008A2B8B2B29F4FF91F093A20080E069C05C
:101EC0008981882331F4CE0105960E94511981E061
:101ED0008983FF91F093A2000E944015F091A20027
:101EE000FF93F87FF093A2008A819B81FC0181A17E
:101EF0008F3F21F48A819B81FC0111A28A819B8101
:101F0000FC0182A18F3F21F48A819B81FC0112A2F6
:101F1000FF91F093A2009E01225F3F4FCE010596F4
:101F2000B9010E947419882331F58A819B810E942E
:101F300055118823C9F08E859F85A889B9892A8182
:101F40003B812D5E3F4FAC01BD01C9010E94EB17E3
:101F50008A819B810E94F0100E944D15882309F010
:101F600072CF0E94820B6FCF8A819B810E94F010FA
:101F70000E944D1568CF8A819B810E94F0100E94BB
:101F80004D158A819B810E945511882309F45BCFEE
:101F900080E06196CDBFDEBFDF91CF910895CF93F2
:101FA000DF9300D0CDB7DEB78A839B83F091A20088
:101FB000FF93F87FF093A2008A819B81FC01868DBC
:101FC0008983FF91F093A20089812396CDBFDEBF64
:101FD000DF91CF910895CF93DF93CDB7DEB72797E9
:101FE000CDBFDEBF8B839C836D837E834F831A823C
:101FF0008B819C81FC01868D89838B819C81FC0176
:1020000080A1882309F48EC08F818823D9F58B8124
:102010009C81FC0180A1482F50E08B819C81FC01B8
:10202000848195812D813E81B9010E94C9368B81C1
:102030009C81FC01248135818B819C81FC0180A1E4
:10204000882F90E0280F391F8B819C81FC0124830D
:1020500035838B819C81FC01248135818B819C811E
:10206000FC01828193812817390708F45BC08B81BA
:102070009C81FC01208131818B819C81FC01248326
:10208000358350C08B819C81FC0180A1482F50E09A
:102090008B819C81FC01868197812D813E81B901D4
:1020A0000E94C9368B819C81FC01268137818B81FE
:1020B0009C81FC0180A1882F90E0919581959109E8
:1020C000280F391F8B819C81FC01268337838B81EC
:1020D0009C81FC01268137818B819C81FC01808160
:1020E000918128173907A8F48B819C81FC012281FA
:1020F00033818B819C81FC0180A1882F90E0919598
:1021000081959109280F391F8B819C81FC012683C1
:1021100037838F81823031F48981882319F0898156
:1021200081508983898121E0280F8B819C81FC016A
:10213000268F8A812796CDBFDEBFDF91CF9108958C
:10214000CF93DF9300D01F92CDB7DEB789839A83F8
:102150006B837C8389819A81FC0180A18823C9F1EA
:1021600089819A81FC012681378189819A81FC01CC
:1021700080A1882F90E0280F391F89819A81FC0166
:102180002683378389819A81FC0126813781898161
:102190009A81FC01828193812817390750F0898147
:1021A0009A81FC012081318189819A81FC012683F9
:1021B000378389819A81FC0180A1482F50E0898171
:1021C0009A81FC01268137818B819C81B9010E9413
:1021D000C93600002496CDBFDEBFDF91CF910895B0
:1021E000CF93DF9300D01F92CDB7DEB78B839C8354
:1021F000F091A200FF93F87FF093A2008B819C8165
:10220000FC0182A1898312C08B819C81FC0183899E
:10221000882381F08B819C8143960E9486188823B5
:1022200011F00E941C1A89818150898389811816B6
:102230005CF301C000008B819C812FEFFC0122A385
:10224000FF91F093A200F091A200FF93F87FF0932A
:10225000A2008B819C81FC0181A18A8312C08B81A9
:102260009C81FC018085882381F08B819C8108966C
:102270000E948618882311F00E941C1A8A818150BE
:102280008A838A8118165CF301C000008B819C81CF
:102290002FEFFC0121A3FF91F093A20000002496F0
:1022A000CDBFDEBFDF91CF910895CF93DF9300D0F4
:1022B000CDB7DEB78A839B83F091A200FF93F87FAE
:1022C000F093A2008A819B81FC01868D882319F4FA
:1022D00081E0898301C01982FF91F093A200898176
:1022E0002396CDBFDEBFDF91CF910895CF93DF93CB
:1022F00000D0CDB7DEB78A839B83F091A200FF9315
:10230000F87FF093A2008A819B81FC01268D8A814F
:102310009B81FC01878D281719F481E0898301C016
:102320001982FF91F093A20089812396CDBFDEBF71
:10233000DF91CF910895CF93DF93CDB7DEB7299783
:10234000CDBFDEBF8B839C834D835E836F83788795
:1023500029878B819C8189839A83F091A200FF93C6
:10236000F87FF093A20089819A81FC0181A18F3FBF
:1023700021F489819A81FC0111A289819A81FC0151
:1023800082A18F3F21F489819A81FC0112A2FF91E1
:10239000F093A20089819A81FC01868D882371F4D3
:1023A00089819A81FC0173968D819E81AF81B88568
:1023B0002985AC01BD01CF010E94521889819A8103
:1023C0000E94F01000002996CDBFDEBFDF91CF91B3
:1023D00008958F929F92AF92BF92CF92DF92EF9229
:1023E000FF920F931F93CF93DF93CDB7DEB7609724
:1023F000CDBFDEBF8E839F83688779874A875B87DF
:102400002C873D870E87EF86F88A8A859B850E94F8
:1024100099078C839D838C819D81892BB9F08CE2F7
:1024200090E00E94990789839A8389819A81892BF8
:1024300041F089819A812C813D81FC01238F348F69
:1024400007C08C819D810E94DD0702C019821A821B
:1024500089819A81892B09F18A859B85CC01A0E02D
:10246000B0E009811A814F8558892C853D856885A2
:102470007985EE81FF81812C912C58016A01EE84CF
:1024800089019C01AD01CF010E94601289819A816E
:102490000E94361381E08B8302C08FEF8B838B8188
:1024A0006096CDBFDEBFDF91CF911F910F91FF905E
:1024B000EF90DF90CF90BF90AF909F908F90089556
:1024C0008F929F92AF92BF92CF92DF92EF92FF9244
:1024D0000F931F93CF93DF93CDB7DEB76497CDBF34
:1024E000DEBF8C839D836E837F83288739874A87ED
:1024F0005B870C871D87EE86CF86D88AA98ABA8A21
:102500008B8A9C8A2885398589899A89FC01838DE3
:10251000948DA90165EA70E00E94D23689899A8972
:10252000FC01238D348D888599850197820F931F37
:102530008A839B83198221C08981882F90E0298119
:10254000222F30E04E815F81240F351FF901408139
:1025500029893A89820F931F4D96FC014083898116
:10256000882F90E02E813F81820F931FFC01808194
:10257000882339F089818F5F898389818830E0F2EF
:1025800001C0000089899A89FC0114A28E858430DB
:1025900010F083E08E8789899A892E85FC01228F2D
:1025A00089899A8902960E94250889899A890E96B6
:1025B0000E94250889899A8929893A89FC012287FC
:1025C00033878E85882F90E0A0E0B0E024E030E0F3
:1025D00040E050E079018A01E81AF90A0A0B1B0B66
:1025E000D801C70129893A89F90186879787A08B85
:1025F000B18B89899A8929893A89FC01268B378B85
:1026000089899A89FC0117A210A611A612A68989A8
:102610009A89FC0113A64C855D852C813D818A81B8
:102620009B81B9010E9471099C0189899A89FC01E9
:10263000208331838F859889892B39F08F859889FC
:1026400029893A89FC012083318300006496CDBF3B
:10265000DEBFDF91CF911F910F91FF90EF90DF9040
:10266000CF90BF90AF909F908F900895CF93DF93BE
:102670001F921F92CDB7DEB789839A83F091A20093
:10268000FF93F87FF093A2008091C62C8F5F809318
:10269000C62C8091682C9091692C892B69F48981D2
:1026A0009A818093682C9093692C8091C62C8130FC
:1026B000C9F40E943A1A16C08091CC2C882391F458
:1026C0008091682C9091692CFC01228D89819A81DE
:1026D000FC01828D821730F089819A818093682C69
:1026E0009093692C8091D02C8F5F8093D02C209177
:1026F000D02C89819A81FC0125A389819A81FC01D2
:10270000928D8091CB2C891730F489819A81FC01BC
:10271000828D8093CB2C89819A81AC014E5F5F4F73
:1027200089819A81FC01828D282F30E06BE0629FC5
:10273000C001639F900D11248659934DBA010E94E8
:102740003808FF91F093A2008091CC2C882371F07F
:102750008091682C9091692CFC01228D89819A814D
:10276000FC01828D281710F40E94820B00000F904C
:102770000F90DF91CF910895CF93DF93CDB7DEB760
:102780002597CDBFDEBF6A837B838C839D831982AF
:102790008A819B81AC81BD81892B8A2B8B2B71F027
:1027A0000E9440158A819B81AC81BD8140E0BC01C3
:1027B000CD010E94171B0E944D15898389818823B2
:1027C00011F40E94820B00002596CDBFDEBFDF9181
:1027D000CF910895CF93DF9300D01F92CDB7DEB78E
:1027E0008B839C83F091A200FF93F87FF093A2006B
:1027F0008B819C81892B29F48091682C9091692C84
:1028000002C08B819C8189839A8389819A810296F7
:102810000E94040989819A81FC01808D918D892B08
:1028200029F089819A810E960E94040989819A81F2
:102830000296BC018BEB9CE20E94380889819A8148
:10284000FC0183A5813021F489819A81FC0113A6C2
:10285000FF91F093A2008091CC2C882359F0F09145
:10286000A200FF93F87FF093A2000E947D1AFF91CF
:10287000F093A2008091682C9091692C29813A8173
:1028800028173907A1F48091CC2C882319F00E94D5
:10289000820B0DC09091BB2C8091C62C981729F407
:1028A0001092682C1092692C02C00E941B17000025
:1028B0002496CDBFDEBFDF91CF910895CF93DF93F4
:1028C000CDB7DEB72597CDBFDEBF8C839D83198240
:1028D0008C819D818A839B838A819B81FC01848575
:1028E00095858B5B9C4289F48A819B81FC01808D5C
:1028F000918D805B9C4249F08A819B81FC01808D97
:10290000918D892B11F481E0898389812596CDBF32
:10291000DEBFDF91CF910895CF93DF9300D01F9258
:10292000CDB7DEB78B839C838B819C8189839A830F
:1029300089819A81892B09F450C08091682C9091EB
:10294000692C29813A812817390709F446C0F0918A
:10295000A200FF93F87FF093A20089819A810E94E0
:102960005E148823B9F189819A8102960E94040934
:1029700089819A81FC01928D8091CB2C891730F44A
:1029800089819A81FC01828D8093CB2C89819A81E7
:10299000AC014E5F5F4F89819A81FC01828D282FA7
:1029A00030E06BE0629FC001639F900D1124865957
:1029B000934DBA010E94380889819A81FC01228DC9
:1029C0008091682C9091692CFC01828D281710F061
:1029D0000E94820BFF91F093A20000002496CDBFCD
:1029E000DEBFDF91CF910895EF92FF920F93CF93C7
:1029F000DF931F92CDB7DEB70F2EF5EDEF2EFCE281
:102A0000FF2EF02D00E020E030E048EC50E060E1E7
:102A100070E287E29AE10E94E9118983898181301D
:102A200019F40E94B81B89838981813009F580EAF5
:102A300090E020EA30E0F9012281287FFC01228326
:102A40008FEF9FEFDC018093D12C9093D22CA09339
:102A5000D32CB093D42C81E08093CC2C1092C72C33
:102A60001092C82C1092C92C1092CA2C0E944A0BAA
:102A700000000F90DF91CF910F91FF90EF9008959C
:102A8000CF93DF93CDB7DEB78091D72C8F5F809344
:102A9000D72C0000DF91CF910895CF93DF9300D022
:102AA0001F92CDB7DEB719821A821B82F091A20065
:102AB000FF93F87FF093A2008091D72C81508093F0
:102AC000D72C8091D72C882309F074C08091C62C14
:102AD000882309F46FC046C08091B72C9091B82C20
:102AE000FC018085918589839A8389819A810E96DC
:102AF0000E94040989819A8102960E9404098981B1
:102B00009A81FC01928D8091CB2C891730F48981B8
:102B10009A81FC01828D8093CB2C89819A81AC01B2
:102B20004E5F5F4F89819A81FC01828D282F30E0B2
:102B30006BE0629FC001639F900D11248659934DF5
:102B4000BA010E94380889819A81FC01228D809106
:102B5000682C9091692CFC01828D281718F081E077
:102B60008093CE2C8091B02C882309F0B5CF898139
:102B70009A81892B11F00E947D1A8091CD2C8C8333
:102B80008C81882379F00E940B16882319F081E04C
:102B90008093CE2C8C8181508C838C81882399F7F3
:102BA0001092CD2C8091CE2C882321F081E08B8354
:102BB0000E94820BFF91F093A2008B812496CDBFDF
:102BC000DEBFDF91CF910895CF93DF9300D01F92A6
:102BD000CDB7DEB7F091A200FF93F87FF093A2008B
:102BE0008091C72C9091C82CA091C92CB091CA2C6F
:102BF00089839A83AB83BC83FF91F093A200898180
:102C00009A81AB81BC81BC01CD012496CDBFDEBFD2
:102C1000DF91CF910895CF93DF93CDB7DEB72D9796
:102C2000CDBFDEBF19828091D72C882309F0F1C077
:102C30008091C72C9091C82CA091C92CB091CA2C1E
:102C40000196A11DB11D8A839B83AC83BD838A81BC
:102C50009B81AC81BD818093C72C9093C82CA0939D
:102C6000C92CB093CA2C8A819B81AC81BD81892BF0
:102C70008A2B8B2BD9F48091AC2C9091AD2C8E8328
:102C80009F838091AE2C9091AF2C8093AC2C90932D
:102C9000AD2C8E819F818093AE2C9093AF2C809130
:102CA000CF2C8F5F8093CF2C0E947D1A8091D12CE6
:102CB0009091D22CA091D32CB091D42C2A813B811D
:102CC0004C815D81281739074A075B0708F48AC0E1
:102CD0008091AC2C9091AD2CFC018081882361F413
:102CE0008FEF9FEFDC018093D12C9093D22CA09397
:102CF000D32CB093D42C76C08091AC2C9091AD2C79
:102D0000FC0187819085FC01808591858887998762
:102D100088859985FC0182819381A481B5818A8708
:102D20009B87AC87BD872A813B814C815D818A85E9
:102D30009B85AC85BD85281739074A075B0768F472
:102D40008A859B85AC85BD858093D12C9093D22CB0
:102D5000A093D32CB093D42C45C088859985029636
:102D60000E94040988859985FC01808D918D892BAD
:102D700029F0888599850E960E9404098885998591
:102D8000FC01928D8091CB2C891730F48885998530
:102D9000FC01828D8093CB2C88859985AC014E5F98
:102DA0005F4F88859985FC01828D282F30E06BE08C
:102DB000629FC001639F900D11248659934DBA0103
:102DC0000E94380888859985FC01228D8091682CA5
:102DD0009091692CFC01828D281708F479CF81E04D
:102DE000898376CF8091682C9091692CFC01828D2B
:102DF000282F30E04BE0429FC001439F900D1124EB
:102E00008659934DFC018081823040F081E08983B6
:102E100005C08091CD2C8F5F8093CD2C8091CE2CDE
:102E2000882311F081E0898389812D96CDBFDEBF93
:102E3000DF91CF910895CF93DF93CDB7DEB7299778
:102E4000CDBFDEBF8091D72C882321F081E0809315
:102E5000CE2CBAC01092CE2C8091682C9091692C07
:102E6000FC01838D948D8A839B8385EA95EADC013E
:102E70008C839D83AE83BF838A819B81FC012081EB
:102E80003181428153818C819D81AE81BF81281720
:102E900039074A075B0799F58A819B810496FC01F3
:102EA00020813181428153818C819D81AE81BF819E
:102EB000281739074A075B0711F58A819B81089615
:102EC000FC0120813181428153818C819D81AE81C1
:102ED000BF81281739074A075B0789F48A819B81DC
:102EE0000C96FC0120813181428153818C819D812E
:102EF000AE81BF81281739074A075B0771F08091BF
:102F0000682C9091692C9C01235E3F4F8091682C26
:102F10009091692CB9010E9412048091CB2C898375
:102F200003C08981815089838981282F30E04BE05B
:102F3000429FC001439F900D11248659934DFC017F
:102F40008081882371F38981282F30E04BE0429FF4
:102F5000C001439F900D11248659934D888799870E
:102F600088859985FC0181819281FC0124813581CC
:102F700088859985FC012183328388859985FC01A8
:102F8000218132818885998503962817390769F44C
:102F900088859985FC0181819281FC01248135819C
:102FA00088859985FC012183328388859985FC0178
:102FB00081819281FC01808591858093682C90931A
:102FC000692C89818093CB2C00002996CDBFDEBF70
:102FD000DF91CF910895CF93DF9300D000D0CDB78C
:102FE000DEB789839A834B835C836D837E83809174
:102FF000682C9091692C9C01225F3F4F89819A81B6
:10300000B9010E9483088B819C81AD81BE8141E022
:10301000BC01CD010E94171B00002696CDBFDEBF6C
:10302000DF91CF9108950F931F93CF93DF93CDB787
:10303000DEB72A97CDBFDEBF89839A834B835C833B
:103040006D837E830F83188729873A872091682CA8
:103050003091692C8B819C81AD81BE81B068F90172
:1030600086879787A08BB18B8091682C9091692C73
:103070009C01225F3F4F89819A81B9010E943808E3
:103080008F819885A985BA8541E0BC01CD010E9458
:10309000171B00002A96CDBFDEBFDF91CF911F9195
:1030A0000F910895CF93DF93CDB7DEB72797CDBFAC
:1030B000DEBF89839A834B835C836D837E832F83FA
:1030C0008091682C9091692C9C01225F3F4F8981EF
:1030D0009A81B9010E9438088F81882339F08FEFD7
:1030E0009FEFDC018B839C83AD83BE838B819C81AE
:1030F000AD81BE814F81BC01CD010E94171B000034
:103100002796CDBFDEBFDF91CF910895CF93DF9398
:10311000CDB7DEB72597CDBFDEBF8C839D838C8175
:103120009D81FC0187819085FC01808591858A8342
:103130009B838A819B810E960E9404098091D72CE3
:10314000882351F58A819B8102960E9404098A8115
:103150009B81FC01928D8091CB2C891730F48A8160
:103160009B81FC01828D8093CB2C8A819B81AC0159
:103170004E5F5F4F8A819B81FC01828D282F30E05A
:103180006BE0629FC001639F900D11248659934D9F
:10319000BA010E94380808C08A819B810E96BC0142
:1031A00080EB9CE20E9438088A819B81FC01228D81
:1031B0008091682C9091692CFC01828D821730F4EB
:1031C00081E0898381E08093CE2C01C019828981BE
:1031D0002596CDBFDEBFDF91CF910895CF93DF93CA
:1031E000CDB7DEB72897CDBFDEBF8B839C834D83E1
:1031F0005E836F8378878D819E81AF81B885B0684B
:103200002B813C81F90180839183A283B3838B81DD
:103210009C81FC018085918589839A838B819C8127
:103220000E94040989819A8102960E940409898179
:103230009A81FC01928D8091CB2C891730F4898181
:103240009A81FC01828D8093CB2C89819A81AC017B
:103250004E5F5F4F89819A81FC01828D282F30E07B
:103260006BE0629FC001639F900D11248659934DBE
:10327000BA010E94380889819A81FC01228D8091CF
:10328000682C9091692CFC01828D821718F481E0E2
:103290008093CE2C00002896CDBFDEBFDF91CF916A
:1032A0000895CF93DF931F921F92CDB7DEB7898326
:1032B0009A832091CF2C89819A81FC01208380916F
:1032C000C72C9091C82CA091C92CB091CA2C2981EF
:1032D0003A81F90181839283A383B48300000F9024
:1032E0000F90DF91CF910895EF92FF920F931F936C
:1032F000CF93DF93CDB7DEB72D97CDBFDEBF8A87E3
:103300009B876C877D87F091A200FF93F87FF093F5
:10331000A2008091C72C9091C82CA091C92CB0918B
:10332000CA2C8A839B83AC83BD838A859B85FC01E1
:1033300081819281A381B4812A813B814C815D810D
:1033400079018A01E81AF90A0A0B1B0BD801C70197
:103350008E839F83A887B9878C859D85FC0180819A
:103360009181A281B3818F3F9F4FAF4FBF4F11F427
:10337000198254C08A859B85FC0190818091CF2C55
:10338000981799F08A859B85FC01218132814381C0
:1033900054818A819B81AC81BD8182179307A407E8
:1033A000B50718F081E0898339C08C859D85FC01C3
:1033B00020813181428153818E819F81A885B98589
:1033C00082179307A407B50700F58C859D85FC013E
:1033D00020813181428153818E819F81A885B98569
:1033E00079018A01E81AF90A0A0B1B0BD801C701F7
:1033F0002C853D85F90180839183A283B3838A85DF
:103400009B850E945119198209C08C859D85FC01FC
:10341000108211821282138281E08983FF91F093DE
:10342000A20089812D96CDBFDEBFDF91CF911F9184
:103430000F91FF90EF900895CF93DF93CDB7DEB754
:1034400081E08093CE2C0000DF91CF910895CF933F
:10345000DF931F921F92CDB7DEB789839A830E94B4
:10346000751A80916A2C823010F00E94820B0E94A3
:103470001621F5CFCF93DF931F92CDB7DEB7198218
:1034800010C08981282F30E04BE0429FC001439F4C
:10349000900D11248659934D0E94EB0789818F5F0F
:1034A00089838981843068F386E99CE20E94EB0776
:1034B00081EA9CE20E94EB0780EB9CE20E94EB0712
:1034C0008BEB9CE20E94EB0786E99CE28093AC2C9C
:1034D0009093AD2C81EA9CE28093AE2C9093AF2C1C
:1034E00000000F90DF91CF910895CF93DF93CDB778
:1034F000DEB70000DF91CF910895CF93DF931F9245
:103500001F92CDB7DEB78091AC2C9091AD2CFC0111
:103510008081882361F48FEF9FEFDC018093D12CB1
:103520009093D22CA093D32CB093D42C1BC0809119
:10353000AC2C9091AD2CFC0187819085FC0180859D
:10354000918589839A8389819A81FC018281938103
:10355000A481B5818093D12C9093D22CA093D32CAD
:10356000B093D42C00000F900F90DF91CF9108956D
:10357000CF93DF931F92CDB7DEB78091CC2C8823F9
:1035800019F481E0898308C08091D72C882319F42D
:1035900082E0898301C0198289810F90DF91CF91E8
:1035A0000895EF92FF920F931F93CF93DF9300D074
:1035B0001F92CDB7DEB78091682C9091692CFC01E9
:1035C00086859785A089B18989839A83AB83BC83DB
:1035D0006091682C7091692C8091682C9091692C75
:1035E000FC01828D882F90E0A0E0B0E024E030E084
:1035F00040E050E079018A01E81AF90A0A0B1B0B36
:10360000D801C701FB0186879787A08BB18B898181
:103610009A81AB81BC81BC01CD012496CDBFDEBFB8
:10362000DF91CF911F910F91FF90EF900895CF936D
:10363000DF93CDB7DEB72D97CDBFDEBF69877A8721
:103640008B879C874D878091C72C9091C82CA09127
:10365000C92CB091CA2C89839A83AB83BC83809197
:10366000682C9091692C02960E94040989859A859C
:10367000AB85BC858F3F9F4FAF4FBF4F71F48D859A
:10368000882359F08091682C9091692C0296BC0196
:103690008BEB9CE20E94380864C029813A814B81FF
:1036A0005C8189859A85AB85BC85820F931FA41F99
:1036B000B51F8D839E83AF83B8872091682C30918E
:1036C000692C8D819E81AF81B885F90182839383B6
:1036D000A483B5832D813E814F81588589819A814C
:1036E000AB81BC81281739074A075B0778F48091C2
:1036F000682C9091692C9C012E5F3F4F8091AE2CDD
:103700009091AF2CB9010E9483082BC08091682C46
:103710009091692C9C012E5F3F4F8091AC2C909131
:10372000AD2CB9010E9483088091D12C9091D22CAC
:10373000A091D32CB091D42C2D813E814F815885FE
:10374000281739074A075B0760F48D819E81AF8196
:10375000B8858093D12C9093D22CA093D32CB09386
:10376000D42C00002D96CDBFDEBFDF91CF91089500
:10377000EF92FF920F93CF93DF931F92CDB7DEB7F7
:1037800019820E9449208091F22C9091F32C892B70
:1037900091F00F2EF4EFEF2EFCE2FF2EF02D03E060
:1037A00020E030E048EC50E065E170E28EEC9CE116
:1037B0000E94E911898389810F90DF91CF910F9148
:1037C000FF90EF900895CF92DF92EF92FF920F93C8
:1037D0001F93CF93DF93CDB7DEB76797CDBFDEBF23
:1037E0008B879C876D872E873F87488B598B0A8BE9
:1037F0001B8BCC8ADD8AEE8AFF8A19828091F22C9B
:103800009091F32C892B09F444C08D858A838E8591
:103810009F85A889B9898B839C83AD83BE838B8563
:103820009C858F8398878D85863034F50E94B81AE1
:10383000823099F4E091F22CF091F32C8C899D89DF
:10384000AE89BF89BE016E5F7F4F00E09C01AD0174
:10385000CF010E94ED0D89831CC08091F22C9091C4
:10386000F32CBE016E5F7F4F00E020E030E0A90145
:103870000E94ED0D89830DC08091F22C9091F32C64
:103880004A895B89BE016E5F7F4F20E00E94AF0EC8
:10389000898389816796CDBFDEBFDF91CF911F916C
:1038A0000F91FF90EF90DF90CF900895CF92DF922D
:1038B000EF92FF920F931F93CF93DF93CDB7DEB7B5
:1038C0002B97CDBFDEBF6C837D838E839F8328873C
:1038D00039874A875B878091EE2C9091EF2CFC0111
:1038E00087819085FC018085918589839A83898170
:1038F0009A8102960E94040989819A81FC01828939
:103900008130B1F589819A81FC012685378540890E
:1039100051898C819D81AE81BF81820F931FA41F2D
:10392000B51FEC80FD800E811F81288539854A8571
:103930005B85E981FA816701780189019A01AC010F
:10394000BD01CF010E94EC1D882391F08C819D81E7
:10395000AE81BF81E981FA81C12CD12C760100E0D2
:1039600010E09C01AD0160E0CF010E94E31B8B835E
:1039700089819A81FC012589368989819A81F90199
:10398000199500002B96CDBFDEBFDF91CF911F911F
:103990000F91FF90EF90DF90CF900895CF93DF933A
:1039A000CDB7DEB72797CDBFDEBF8E839F83CE0115
:1039B00005960E94691DDC01CB0189839A83AB8344
:1039C000BC832D8189819A81AB81BC81422FBC014E
:1039D000CD010E94EE1C0E94851EE9CFEF92FF925E
:1039E0000F931F93CF93DF93CDB7DEB72A97CDBF49
:1039F000DEBF6E837F83888799874A870E94401540
:103A0000CE0105960E94A71DDC01CB0189839A8314
:103A1000AB83BC838D81882309F04EC08A858823BF
:103A2000E1F42E813F814885598589819A81AB8156
:103A3000BC8182179307A407B50778F00E944D1543
:103A400029813A814B815C818E819F81A885B985CE
:103A5000BC01CD010E94561C31C08A85882359F0D3
:103A60008091F02C9091F12CFC01908181E09923C0
:103A700009F080E08A872E813F81488559858981B8
:103A80009A81AB81BC8179018A01E81AF90A0A0B93
:103A90001B0BD801C701E091F22CF091F32C2A8581
:103AA000AC01BD01CF010E949B110E944D158823DE
:103AB00029F40E94820B02C00E944D1500002A9634
:103AC000CDBFDEBFDF91CF911F910F91FF90EF909F
:103AD0000895CF93DF9300D000D0CDB7DEB78D83AC
:103AE0009E838091EE2C9091EF2CFC01908181E0DF
:103AF000992309F080E0282F8D819E81FC0120838D
:103B00008D819E81FC018081882389F48091EE2C37
:103B10009091EF2CFC0187819085FC01808191813F
:103B2000A281B38189839A83AB83BC8304C0198249
:103B30001A821B821C8289819A81AB81BC81BC0163
:103B4000CD012696CDBFDEBFDF91CF910895CF93F3
:103B5000DF9300D000D0CDB7DEB78D839E830E9467
:103B6000E415DC01CB0189839A83AB83BC8380910C
:103B7000F62C9091F72CA091F82CB091F92C29817A
:103B80003A814B815C81281739074A075B0740F46B
:103B90000E948F1F8D819E8121E0FC01208304C043
:103BA0008D819E81FC01108289819A81AB81BC81CB
:103BB0008093F62C9093F72CA093F82CB093F92CCB
:103BC00089819A81AB81BC81BC01CD012696CDBF94
:103BD000DEBFDF91CF910895CF92DF92EF92FF92F7
:103BE0000F931F93CF93DF93CDB7DEB72F97CDBF42
:103BF000DEBF8A839B834C835D836E837F830887CC
:103C000019872A873B87CC86DD86EE86FF86198258
:103C10002A813B818C819D81AE81BF81F9018283A4
:103C20009383A483B5838A819B812A813B81FC0194
:103C3000228733872C813D814E815F8188859985DC
:103C4000AA85BB8582179307A407B50740F128858D
:103C500039854A855B858C859D85AE85BF85281B0A
:103C6000390B4A0B5B0B8A819B81FC01868597850A
:103C7000A089B189281739074A075B0718F081E046
:103C8000898336C08A819B819C012E5F3F4F809142
:103C9000F02C9091F12CB9010E94830829C028854D
:103CA00039854A855B858C859D85AE85BF852817BE
:103CB00039074A075B0780F42C813D814E815F8183
:103CC0008C859D85AE85BF85281739074A075B0718
:103CD00018F081E089830CC08A819B819C012E5F52
:103CE0003F4F8091EE2C9091EF2CB9010E948308F8
:103CF00089812F96CDBFDEBFDF91CF911F910F91AC
:103D0000FF90EF90DF90CF900895CF92DF92EF92E7
:103D1000FF920F931F93CF93DF93CDB7DEB76597D5
:103D2000CDBFDEBFE0C08A858823FCF4CE010A96B1
:103D3000019689839A8389819A81FC01208131814E
:103D400089819A81FC0184819581A681B78149810D
:103D50005A81FA010280F381E02DEC8BFD8BAC01DE
:103D6000BD018C899D89F90119958A8588230CF4F8
:103D7000BAC08F8598898B839C838B819C81FC0141
:103D800084859585892B29F08B819C8102960E94E0
:103D90000409CE0143960E94A71DDC01CB018D834F
:103DA0009E83AF83B8878A85082E000C990B092E55
:103DB000000CAA0BBB0B40E050E029E030E0841B74
:103DC000950B2817390708F48DC0FC018827E250AD
:103DD000FF4F8F4F0C94C435EB84FC840D851E85FA
:103DE0002B853C854D855E858B819C81FC0186857C
:103DF0009785A089B189820F931FA41FB51F2D81BC
:103E00003E814F815885EB81FC81670178018901F2
:103E10009A01AC01BD01CF010E94EC1D882309F479
:103E200062C08B819C81FC01258936898B819C81B4
:103E3000F90119958B819C81FC018289813009F0FF
:103E400052C02B853C854D855E858B819C81FC0114
:103E500086859785A089B189820F931FA41FB51FFE
:103E6000EB81FC81C12CD12C760100E010E09C019B
:103E7000AD0160E0CF010E94E31B898734C08B85D0
:103E80009C85AD85BE852B813C81F901868797870E
:103E9000A08BB18B8B819C81FC0126853785408965
:103EA00051898D819E81AF81B885820F931FA41F98
:103EB000B51FED80FE800F8118852D813E814F81D9
:103EC0005885EB81FC816701780189019A01AC0179
:103ED000BD01CF010E94EC1D06C08B819C810E9418
:103EE000DD0701C000008091F22C9091F32CBE01FF
:103EF000665F7F4F20E030E0A9010E940F0F88230A
:103F000009F011CF00006596CDBFDEBFDF91CF91E4
:103F10001F910F91FF90EF90DF90CF900895CF9277
:103F2000DF92EF92FF920F931F93CF93DF93CDB762
:103F3000DEB72D97CDBFDEBF82C08091EE2C909171
:103F4000EF2CFC0187819085FC0180819181A28109
:103F5000B38189839A83AB83BC838091EE2C90914B
:103F6000EF2CFC0187819085FC01808591858D83F4
:103F70009E838D819E8102960E9404098D819E817F
:103F8000FC01258936898D819E81F90119958D81E4
:103F90009E81FC018289813009F051C08D819E8112
:103FA000FC01268537854089518989819A81AB81B9
:103FB000BC81820F931FA41FB51F8F839887A98789
:103FC000BA872F81388549855A8589819A81AB8145
:103FD000BC8182179307A407B507F8F42D813E81B1
:103FE0008F819885A985BA85F90182839383A483FB
:103FF000B5838D819E812D813E81FC01228733878F
:104000008D819E819C012E5F3F4F8091EE2C90917F
:10401000EF2CB9010E94830812C089819A81AB817B
:10402000BC81ED81FE81C12CD12C760100E010E035
:104030009C01AD0160E0CF010E94E31B8B87809162
:10404000EE2C9091EF2CFC018081882309F075CF34
:104050008091EE2C9091EF2C8C879D878091F02C95
:104060009091F12C8093EE2C9093EF2C8C859D8574
:104070008093F02C9093F12C00002D96CDBFDEBFE5
:10408000DF91CF911F910F91FF90EF90DF90CF9034
:104090000895CF93DF93CDB7DEB7F091A200FF93E1
:1040A000F87FF093A2008091F22C9091F32C892B51
:1040B000E9F488ED9CE20E94EB0783EE9CE20E940B
:1040C000EB0788ED9CE28093EE2C9093EF2C83EE2F
:1040D0009CE28093F02C9093F12C40E069E085E025
:1040E0000E94680D8093F22C9093F32CFF91F09333
:1040F000A2000000DF91CF9108950F931F93CF93FB
:10410000DF93CDB7DEB76497CDBFDEBF8B879C87CB
:104110006D877E872F87388B498B5A8B0B8B1C8B37
:104120008EEF8A838B859C858B839C838D859E8572
:104130008D839E838F859889A989BA898F83988773
:10414000A987BA878091F22C9091F32C4B895C89D6
:10415000BE016E5F7F4F20E00E94AF0E8983898190
:104160006496CDBFDEBFDF91CF911F910F9108956F
:10417000CF93DF93CDB7DEB780E590E020E530E068
:10418000F90120812160FC01208380E590E0FC01A1
:104190008181882F90E081709927892BB1F380E08D
:1041A0000E949C038EE10E94650360E080E00E9413
:1041B000850343E060E080E40E94300380E590E006
:1041C00020E530E0F90120812860FC01208380E5B2
:1041D00090E0FC018181882F90E088709927892BDD
:1041E000B1F364E080EC0E944D0380E590E020E5AF
:1041F00030E0F90120812061FC01208360E080E053
:104200000E94850380E590E0FC018181882F90E089
:1042100080719927892BB1F384E00E949C0387E089
:104220000E9465030000DF91CF910895CF93DF9343
:10423000CDB7DEB70000DF91CF910895EF92FF92E6
:104240000F93CF93DF93CDB7DEB70E94B8200E94C3
:1042500020280E945C0480934E2D90934F2D0E9445
:104260005C048093482D9093492D0E945C048093B8
:104270004A2D90934B2D0E945C0480934C2D90937B
:104280004D2D0F2EFAE0EF2EFDE2FF2EF02D01E076
:1042900020E030E040E951E06DE170E287E891E232
:1042A0000E94E9110F2EFCE0EF2EFDE2FF2EF02D13
:1042B00001E020E030E040E951E069E270E287EAA5
:1042C00092E20E94E911E12CF12C03E020E030E0C1
:1042D0004AEF50E067E370E283EE93E20E94E91157
:1042E000E12CF12C02E020E030E040E951E062E412
:1042F00070E282E394E20E94E9110E94F41480E0EB
:1043000090E0DF91CF910F91FF90EF900895CF92C1
:10431000DF92EF92FF920F931F93CF93DF931F9241
:104320001F92CDB7DEB789839A838091482D9091F3
:10433000492D40E050E0BA010E94B705DC01CB01F5
:104340000197A105B10589F78091062D9091072D60
:10435000019781F40E94E415DC01CB018093162DB6
:104360009093172DA093182DB093192D1092062D10
:104370001092072DC0900020D0900120E0900220E4
:10438000F09003208091042090910520A0910620B8
:10439000B091072020E030E040E85FE3BC01CD01B0
:1043A0000E94D62FDC01CB019C01AD0160E070E0E2
:1043B00080E89FE30E944830DC01CB019C01AD0105
:1043C000C701B6010E94D62FDC01CB016C017D0133
:1043D0008091042090910520A0910620B0910720A3
:1043E00020E030E040E85FE3BC01CD010E94D72F20
:1043F000DC01CB019C01AD0160E070E080E89FE34F
:104400000E944830DC01CB019C01AD01C701B6011F
:104410000E94D72FDC01CB018093002090930120D4
:10442000A0930220B0930320809104209091052056
:10443000A0910620B091072020E030E040E850E451
:10444000BC01CD010E94D72FDC01CB018093042059
:1044500090930520A0930620B09307208091002020
:1044600090910120A0910220B091032020E030E043
:1044700040E850E4BC01CD010E94A731DC01CB0132
:104480008093FA2C9093FB2CA093FC2CB093FD2CE2
:104490008091FA2C9091FB2CA091FC2CB091FD2CDA
:1044A00020ED3FE049E450E4BC01CD010E94A2317F
:1044B00018169CF58091FA2C9091FB2CA091FC2C65
:1044C000B091FD2C29EF3FE049E450E4BC01CD015F
:1044D0000E94433088230CF50E94E4159B01AC0137
:1044E0008091162D9091172DA091182DB091192D16
:1044F00079018A01E81AF90A0A0B1B0BD801C701D6
:1045000080930E2D90930F2DA093102DB093112D0D
:104510006FEF7FEFCB010E94BC1380914C2D9091E7
:104520004D2D40E050E0BA010E94B705DC01CB01FF
:104530000197A105B10509F0F8CE8091482D909121
:10454000492D40E050E0BA010E940206EECEEF9203
:10455000FF920F931F93CF93DF931F921F92CDB7BC
:10456000DEB789839A8380914A2D90914B2D40E04C
:1045700050E0BA010E94B705DC01CB010197A1050B
:10458000B10589F78091082D9091092D019781F44B
:104590000E94E415DC01CB018093162D9093172D1A
:1045A000A093182DB093192D1092082D1092092D5B
:1045B0008091022D9091032DA091042DB091052D95
:1045C0009C01AD012F5F3F4F4F4F5F4F8091022DF8
:1045D0009091032DA091042DB091052D880F991F66
:1045E000AA1FBB1F0396A11DB11DBC01CD010E94D6
:1045F000B4359B01AC018091022D9091032DA091C7
:10460000042DB091052D0296A11DB11DBC01CD0157
:104610000E94B435DC01CB01880F991FAA1FBB1F74
:10462000880F991FAA1FBB1FBC01CD010E94F0304B
:10463000DC01CB019C01AD0160E070E080E890E41A
:104640000E944830DC01CB017C018D0180910C205F
:1046500090910D20A0910E20B0910F209C01AD01F2
:10466000C801B7010E94A731DC01CB017C018D019B
:104670008091082090910920A0910A20B0910B20F0
:104680009C01AD01C801B7010E94D72FDC01CB010D
:104690008093082090930920A0930A20B0930B20C8
:1046A00080910C2090910D20A0910E20B0910F20B0
:1046B000B05880930C2090930D20A0930E20B093BF
:1046C0000F208091022D9091032DA091042DB09187
:1046D000052D0196A11DB11D8093022D9093032DF0
:1046E000A093042DB093052D80910820909109206E
:1046F000A0910A20B0910B208093FE2C9093FF2C68
:10470000A093002DB093012D8091FE2C9091FF2C51
:10471000A091002DB091012D20ED3FE049E450E43F
:10472000BC01CD010E94A23118169CF58091FE2C8F
:104730009091FF2CA091002DB091012D29EF3FE029
:1047400049E450E4BC01CD010E94433088230CF5BC
:104750000E94E4159B01AC018091162D9091172DBC
:10476000A091182DB091192D79018A01E81AF90A42
:104770000A0B1B0BD801C7018093122D9093132DA8
:10478000A093142DB093152D6FEF7FEFCB010E94F6
:10479000BC1380914C2D90914D2D40E050E0BA011A
:1047A0000E94B705DC01CB010197A105B10509F015
:1047B000DACE80914A2D90914B2D40E050E0BA0125
:1047C0000E940206D0CECF93DF931F921F92CDB7E7
:1047D000DEB789839A830E94CD010E94E90180E0BF
:1047E0000E94DB02813051F480914E2D90914F2D2B
:1047F00041E050E060E070E00E94020681E00E942B
:10480000DB02813051F480914E2D90914F2D42E08A
:1048100050E060E070E00E94020682E00E94DB024D
:10482000813051F480914E2D90914F2D44E050E015
:1048300060E070E00E94020683E00E94DB028130AB
:1048400051F480914E2D90914F2D48E050E060E062
:1048500070E00E9402066AE070E080E090E00E9452
:10486000BC13BBCFCF93DF93CDB7DEB7C655D1090D
:10487000CDBFDEBF9E012B5A3F4FF901808391834C
:1048800080914E2D90914F2D40E050E0BA010E9452
:10489000B705DC01CB019927AA27BB2789839A8317
:1048A000AB83BC8380914E2D90914F2D4FEF50E004
:1048B00060E070E00E94B70589819A81AB81BC817C
:1048C00082309105A105B10509F440C083309105FE
:1048D000A105B10528F40197A105B10561F0E2C079
:1048E00084309105A105B105E1F10897A105B10555
:1048F00009F4ACC0D7C080911A2D882389F4809127
:10490000482D9091492D41E050E060E070E00E9418
:10491000020681E090E08093062D9093072DBDC0A4
:1049200080911A2D813009F0B8C080914A2D909164
:104930004B2D41E050E060E070E00E94020681E013
:1049400090E08093082D9093092DA7C080914C2D65
:1049500090914D2D41E050E060E070E00E94020631
:10496000A1C080911A2D882391F510920E2D1092DE
:104970000F2D1092102D1092112D1092FA2C1092D2
:10498000FB2C1092FC2C1092FD2C80E090E0A0E813
:10499000BFE38093002090930120A0930220B09366
:1049A000032080E090E0A0E8B0E48093042090939E
:1049B0000520A0930620B09307208091482D909168
:1049C000492D40E050E0BA010E94020668C0809183
:1049D0001A2D813009F063C01092122D1092132D00
:1049E0001092142D1092152D1092FE2C1092FF2C67
:1049F0001092002D1092012D80E090E0A0E4B0E430
:104A00008093082090930920A0930A20B0930B2054
:104A10001092022D1092032D1092042D1092052D4C
:104A200080E090E0A0E8BFE380930C2090930D20FD
:104A3000A0930E20B0930F2080914A2D90914B2D82
:104A400040E050E0BA010E94020629C080911A2D70
:104A5000882381F480910A2D90910B2D0E94EA13F6
:104A600080910C2D90910D2D0E948C1481E08093EB
:104A70001A2D17C080911A2D813099F480910C2D38
:104A800090910D2D0E94EA1380910A2D90910B2D8B
:104A90000E948C1410921A2D04C0000003C0000064
:104AA00001C0000080911A2D882309F089C00E945E
:104AB0006B2A80E590E2892F8F9380E590E28F93B7
:104AC0001F921F921F921F920E947D2A0F900F909B
:104AD0000F900F900F900F908091FA2C9091FB2CDB
:104AE000A091FC2CB091FD2C2B2F2F932A2F2F93CC
:104AF000292F2F938F938BE590E2892F8F938BE54E
:104B000090E28F93CE010596292F2F938F930E94C9
:104B100059378DB79EB70896CDBFDEBFCE0105963B
:104B2000292F2F938F9384E690E2892F8F9384E629
:104B300090E28F931F921F921F9281E08F930E94A9
:104B40007D2AEDB7FEB73896CDBFDEBF80910E2D22
:104B500090910F2DA091102DB091112D2B2F2F93EF
:104B60002A2F2F93292F2F938F9387E690E2892F57
:104B70008F9387E690E28F93CE014996292F2F934A
:104B80008F930E9459378DB79EB70896CDBFDEBF71
:104B9000CE014996292F2F938F9384E690E2892F97
:104BA0008F9384E690E28F931F921F921F9282E070
:104BB0008F930E947D2AEDB7FEB73896CDBFDEBF3A
:104BC00080911A2D813009F08BC00E946B2A85E7F5
:104BD00090E2892F8F9385E790E28F931F921F9227
:104BE0001F921F920E947D2A0F900F900F900F909E
:104BF0000F900F908091FE2C9091FF2CA091002D92
:104C0000B091012D2B2F2F932A2F2F93292F2F93E4
:104C10008F938BE590E2892F8F938BE590E28F93B2
:104C2000CE018D96292F2F938F930E9459378DB7E0
:104C30009EB70896CDBFDEBFCE018D96292F2F934C
:104C40008F9384E690E2892F8F9384E690E28F938E
:104C50001F921F921F9281E08F930E947D2AEDB7D1
:104C6000FEB73896CDBFDEBF8091122D9091132DE7
:104C7000A091142DB091152D2B2F2F932A2F2F9308
:104C8000292F2F938F9387E690E2892F8F9387E6C2
:104C900090E28F93CE018F5B9F4F292F2F938F939D
:104CA0000E9459378DB79EB70896CDBFDEBFCE01A3
:104CB0008F5B9F4F292F2F938F9384E690E2892F4C
:104CC0008F9384E690E28F931F921F921F9282E04F
:104CD0008F930E947D2AEDB7FEB73896CDBFDEBF19
:104CE00082E890E2892F8F9382E890E28F931F925F
:104CF0001F921F9283E08F930E947D2A0F900F9046
:104D00000F900F900F900F9064EF71E080E090E0B3
:104D10000E94BC13B5CD1F920F9200903F000F92DE
:104D2000112400903B000F922F933F934F935F937A
:104D30006F937F938F939F93AF93BF93EF93FF9363
:104D4000CF93DF931F92CDB7DEB719828091522D9A
:104D50009091532D9E012F5F3F4F41E050E060E066
:104D600070E00E946F0760E080E09BE00E94BE035D
:104D700080E09BE0FC01168200000F90DF91CF9154
:104D8000FF91EF91BF91AF919F918F917F916F9123
:104D90005F914F913F912F910F9000923B000F90A8
:104DA00000923F000F901F901895CF92DF92EF92E4
:104DB000FF920F93CF93DF9300D01F92CDB7DEB752
:104DC00069837A838B839C8389819A81AB81BC813F
:104DD0000297A105B10540F482E090E0A0E0B0E0C8
:104DE00089839A83AB83BC8380E09BE021E0FC0154
:104DF000268380E09BE0FC0110A211A260E080E02D
:104E00009BE00E94DA0389819A81AB81BC818E3F4D
:104E10009F4FA105B10598F420E03BE089819A817C
:104E2000AB81BC81B695A79597958795F90186A327
:104E300097A365E080E09BE00E94BE031FC08981CC
:104E40009A81AB81BC8180349244AF40B105B0F40B
:104E500020E03BE089819A81AB81BC81689414F8A1
:104E6000B695A795979587951694D1F7F90186A3DE
:104E700097A367E080E09BE00E94BE038091522DE3
:104E80009091532D0F2EF4EFCF2EDD24D394E12CEF
:104E9000F12CF02D00E021E041E050E060E070E016
:104EA0000E947F0400002496CDBFDEBFDF91CF912A
:104EB0000F91FF90EF90DF90CF900895CF93DF9305
:104EC0001F92CDB7DEB7898389818F7089838981ED
:104ED0008295807F898380E096E020E036E0F901CA
:104EE000348129812F602323FC01248380E096E014
:104EF00020E036E0F90134812981232BFC01248351
:104F000000000F90DF91CF910895CF93DF931F9210
:104F1000CDB7DEB789838981882331F080E696E0BA
:104F200021E0FC01258305C080E696E021E0FC013C
:104F3000268300000F90DF91CF910895CF93DF93E8
:104F40001F92CDB7DEB789838981882331F080E64F
:104F500096E022E0FC01258305C080E696E022E091
:104F6000FC01268300000F90DF91CF910895CF932D
:104F7000DF931F92CDB7DEB789838981882331F013
:104F800080E696E024E0FC01258305C080E696E0FB
:104F900024E0FC01268300000F90DF91CF9108955B
:104FA000CF93DF93CDB7DEB781E00E94B72761E0F2
:104FB00070E080E090E00E94D52680E00E94B72754
:104FC0000000DF91CF910895CF93DF931F92CDB76B
:104FD000DEB78983898182958F700E945E2780E089
:104FE0000E94852780E00E949E270E94D027898109
:104FF0008F700E945E270E94D02700000F90DF91E3
:10500000CF910895CF93DF931F92CDB7DEB78983F9
:10501000898182958F700E945E2781E00E9485279A
:1050200080E00E949E270E94D02789818F700E9475
:105030005E270E94D02700000F90DF91CF91089546
:10504000EF92FF920F93CF93DF93CDB7DEB780E05F
:1050500096E020E1FC01218380E096E020E2FC0163
:10506000218380E096E020E4FC01218380E096E04B
:1050700020E8FC01218380E696E021E0FC01218309
:1050800080E696E022E0FC01218380E696E024E0C1
:10509000FC01218380E096E020E036E0F9012481E4
:1050A0002F70FC01248380E696E020E636E0F901CB
:1050B0002481287FFC01248340E066E188E00E948F
:1050C000680D8093502D9093512D0E945C04809325
:1050D000522D9093532DE12CF12C01E020E030E093
:1050E0004EE551E066E970E28EE199E20E94E91135
:1050F0000000DF91CF910F91FF90EF900895CF9333
:10510000DF9300D01F92CDB7DEB789839A836B837C
:105110007C8389819A818130910589F08230910563
:105120001CF4892B39F01AC08230910569F003977D
:1051300081F014C08B8180580E94E4270FC08B81BE
:1051400080540E94E4270AC08B818C560E94E42779
:1051500005C08B818C520E94E427000067E270E05A
:1051600080E090E00E94D52600002496CDBFDEBFEF
:10517000DF91CF910895CF93DF931F92CDB7DEB724
:10518000898389810E9402286BE270E080E090E0D0
:105190000E94D52600000F90DF91CF910895CF9304
:1051A000DF9300D01F92CDB7DEB78B839C8319822B
:1051B0001A8219C089819A812B813C81820F931FA9
:1051C000FC0180818823A1F089819A812B813C8117
:1051D000820F931FFC0180810E94BB2889819A81E4
:1051E000019689839A8389819A8144971CF301C02F
:1051F000000000002496CDBFDEBFDF91CF9108955F
:10520000CF93DF9300D000D0CDB7DEB789839A83E8
:105210006B837C834D835E832B813C8189819A8162
:10522000B9010E947F288D819E810E94CF280000B5
:105230002696CDBFDEBFDF91CF910895CF93DF9348
:10524000CDB7DEB7C057D109CDBFDEBF9E01215912
:105250003F4FF9018083918319821A821B821C823D
:105260001D821E8226C01F8218861AC02D813E8193
:1052700044E1429FC001439F900D11249E012F5F86
:105280003F4F280F391F8F819885820F931F0896F3
:1052900020E2FC0120838F81988501968F83988777
:1052A0008F819885449714F38D819E8101968D831B
:1052B0009E838D819E810497B4F260E47CE980E056
:1052C00090E00E94D52683E00E945E2768E873E1A3
:1052D00080E090E00E94D5260E94D02760EA70E02E
:1052E00080E090E00E94D5260E94D02760EA70E01E
:1052F00080E090E00E94D5260E94D02760EA70E00E
:1053000080E090E00E94D52682E00E945E270E9405
:10531000D02788E20E94E42780E10E94E4278CE005
:105320000E94E42786E00E94E42768EC70E080E0B9
:1053300090E00E94BC138091522D9091532D40E03B
:1053400050E0BA010E94B705DC01CB01892B8A2B02
:105350008B2B09F496C08091522D9091532D42E0F1
:1053600050E060E070E00E94B70519821A8226C002
:105370001B821C821AC029813A8144E1429FC001EC
:10538000439F900D11249E012F5F3F4F280F391F1F
:105390008B819C81820F931F089620E2FC01208361
:1053A0008B819C8101968B839C838B819C8144970C
:1053B00014F389819A81019689839A8389819A81DC
:1053C0000497B4F25EC08091502D9091512DBE0192
:1053D000675A7F4F2FEF3FEFA9010E940F0F8823DD
:1053E00009F44FC019821A8232C0CE01875A9F4FEA
:1053F000FC018081482F50E0CE01875A9F4FFC016D
:105400008181282F30E089819A81820F931FBE010C
:10541000675A7F4F29813A81260F371F2E5F3F4FF2
:10542000F901608174E1749F9001759F300D112422
:10543000AE014F5F5F4F240F351F820F931F0896F9
:10544000FC01608389819A81019689839A83CE01C8
:10545000875A9F4FFC018181282F30E089819A81F2
:10546000820F931F44976CF49E01275A3F4F898106
:105470009A81820F931F0296FC018081882309F094
:10548000B4CF8091502D9091512D0E94CF0F882341
:1054900009F099CF19821A8219C09E01275F3F4FE8
:1054A00049815A8164E1649FC001659F900D112478
:1054B000280F391F89819A81A90160E070E00E945C
:1054C000002989819A81019689839A8389819A81A9
:1054D00004971CF32ACFCF93DF93CDB7DEB780912B
:1054E000522D9091532D42E050E060E070E00E9418
:1054F00002060000DF91CF910895CF93DF931F92B2
:105500001F92CDB7DEB7CE010E9689839A8329818B
:105510003A814C855D856A857B85888599850E9461
:10552000972A00000F900F90DF91CF9108950F936D
:10553000CF93DF93CDB7DEB7EC97CDBFDEBF8DAB9A
:105540009EAB6FAB78AF49AF5AAF2BAF3CAF198270
:105550001A821B821C820BC08B819C81855E924DBE
:10556000FC0110828B819C8101968B839C838B81B3
:105570009C8144978CF31D821E820BC08D819E817D
:10558000815D924DFC0110828D819E8101968D83FB
:105590009E838D819E8144978CF3BEC18D89853217
:1055A00009F0A0C189AD9AAD9C012F5F3F4F29AF93
:1055B0003AAFFC0180818D8B8D89882F90E08536F4
:1055C000910509F446C18636910554F48336910558
:1055D00001F1843691050CF070C0859769F09CC18B
:1055E0008337910571F18837910509F4A8C0863693
:1055F000910509F4E6C090C189819A81815D924D3F
:1056000025E2FC01208389819A81019689839A830E
:1056100083C18BAD9CAD9C012E5F3F4F2BAF3CAF48
:10562000FC01808191818E8B89819A81815D924D6F
:105630002E89FC01208389819A81019689839A832E
:105640006BC18BAD9CAD9C012E5F3F4F2BAF3CAF30
:10565000FC01808191818F8B988F1F82188617C0E3
:1056600029813A818F819885820F931F2F813885F8
:105670004F89588D240F351FF9012081815D924D8E
:10568000FC0120838F81988501968F8398878F896D
:10569000988D0E94D9369C018F8198858217930737
:1056A000F8F28F89988D0E94D9369C0189819A8160
:1056B000820F931F89839A832FC18BAD9CAD9C0170
:1056C0002E5F3F4F2BAF3CAFFC0180819181898FD2
:1056D0009A8F898D9A8D4AE050E06BE17DE20E94BD
:1056E000ED3619861A8615C029813A8189859A85F1
:1056F000820F931F29853A85255E324DF90120815D
:10570000815D924DFC01208389859A850196898768
:105710009A878BE19DE20E94D9369C0189859A8502
:105720008217930708F38BE19DE20E94D9369C0112
:1057300089819A81820F931F89839A83EDC08BADF3
:105740009CAD9C012E5F3F4F2BAF3CAFFC01808195
:105750009181898F9A8F898D9A8D40E150E06BE11C
:105760007DE20E94ED361B861C8615C029813A8198
:105770008B859C85820F931F2B853C85255E324D42
:10578000F9012081815D924DFC0120838B859C85F0
:1057900001968B879C878BE19DE20E94D9369C0104
:1057A0008B859C858217930708F38BE19DE20E940D
:1057B000D9369C0189819A81820F931F89839A83AC
:1057C000ABC08BAD9CAD9C012C5F3F4F2BAF3CAF72
:1057D000FC0180819181A281B3818B8F9C8FAD8FE1
:1057E000BE8F8B8D9C8DAD8DBE8DAC01BD018BE1CF
:1057F0009DE20E94662D1D861E8615C029813A8174
:105800008D859E85820F931F2D853E85255E324DA9
:10581000F9012081815D924DFC0120838D859E855B
:1058200001968D879E878BE19DE20E94D9369C016F
:105830008D859E858217930708F38BE19DE20E9478
:10584000D9369C0189819A81820F931F89839A831B
:1058500063C08BAD9CAD9C012C5F3F4F2BAF3CAF29
:10586000FC0180819181A281B3818B8F9C8FAD8F50
:10587000BE8F8B8D9C8DAD8DBE8DAC01BD018BE13E
:105880009DE20E94B52E1F86188A15C029813A8193
:105890008F859889820F931F2F853889255E324D19
:1058A000F9012081815D924DFC0120838F859889CB
:1058B00001968F87988B8BE19DE20E94D9369C01DF
:1058C0008F8598898217930708F38BE19DE20E94E8
:1058D000D9369C0189819A81820F931F89839A838B
:1058E00000001AC089819A81815D924D2D89FC0149
:1058F000208389819A81815D924DFC0180818A306B
:1059000031F489819A81815D924DFC0110828981F7
:105910009A81019689839A8389AD9AAD9C012F5F04
:105920003F4F29AF3AAFFC0180818D8B8D89882351
:1059300009F034CE29813A818FA998AD820F931F47
:10594000449754F024E130E08FA998ADA901481B99
:10595000590BCA0189839A83198A1A8A0EC09E013B
:105960002F5D3F4F89899A89820F931FFC01108216
:1059700089899A890196898B9A8B89899A89449712
:1059800074F38DA98F8F8FA988A31B8A1C8A14C0DA
:105990008B899C89815D924DFC0140819E012F5D28
:1059A0003F4F8B899C89820F931FFC0140838B8919
:1059B0009C8901968B8B9C8B2B893C8989819A8150
:1059C000281739072CF38091502D9091512DBE014D
:1059D000615E7F4F00E02FEF3FEFA9010E94ED0DC8
:1059E00089819A81EC96CDBFDEBFDF91CF910F9177
:1059F0000895CF93DF93CDB7DEB72897CDBFDEBF35
:105A00008F83988719821A828F819885FC01808103
:105A10009181A281B3818B839C83AD83BE8315C0AA
:105A200020E030E040E251E46B817C818D819E81F9
:105A30000E944830DC01CB018B839C83AD83BE8305
:105A400089819A81019689839A8320E030E040E839
:105A50005FE36B817C818D819E810E94A2318823CE
:105A6000FCF615C020E030E040E251E46B817C811F
:105A70008D819E810E94A731DC01CB018B839C83A9
:105A8000AD83BE8389819A81019789839A832DECA6
:105A90003CEC4CEC5DE36B817C818D819E810E94AE
:105AA00043308823FCF22F8138858B819C81AD8126
:105AB000BE81F90180839183A283B38389819A8116
:105AC0002896CDBFDEBFDF91CF910895CF92DF92B0
:105AD000EF92FF92CF93DF93CDB7DEB72E97CDBF76
